:1000000077EF00F00D500F02F3CF01F0F4CF00F0C6
:100010001002F35000260E500F02F3500020026E23
:10002000AEEF00F00B500C5C03E30D500B5C05E2EF
:1000300093928A8293908A9004D093928A9293901A
:100040008A80BEEF00F00E50016A0D5C03E20DC025
:1000500000F00CD0006A080E0F6E0D3600360E5000
:10006000005CD8B0006E01360F2EF7D712000CC01E
:100070000DF00A0E0E6EE7DF00501009956A8C6EC7
:10008000959E8C9E959C8C8C6BEF00F0EA6A0C0E12
:10009000E96EEF500DE0060E016E006A002EFED7ED
:1000A000012EFBD77B0E006E002EFED7EF2EF3D76E
:1000B00012000CC00DF00A0E0E6EC5DF01502009B3
:1000C000956A8C6E959C8C9C959E8C8E71EF00F041
:1000D0000BC00CF0CCD70A0E0C6ED8DF0BC00CF0A6
:1000E000E8D70A0E0C6ED2DFF3D7C1EF00F0F86A42
:1000F000D09E400EAF6EA60EAC6E900EAB6EC18061
:10010000C182C184C196070EB46EC190C182C18400
:10011000C186C19CC28CC28EC18EC280D26A1E0EA4
:10012000056E010E066E140E076E2D0E0A6E000E81
:10013000016EC250C70B0110C26EC284C2B4FED79A
:10014000C4CF03F0C3CF0BF0C4CF0CF0C4CF0EF07C
:10015000C3CF0DF0106A640E0F6E54D702C00CF0BE
:100160000230026E02323F0E021602C007F007C0D4
:100170000BF005C00CF006C00DF054D707C00BF013
:06018000A7D7DBD7030046
:020000040030CA
:0E00000000220E0E000081000FC00FE00F4026
:00000001FF
;PIC18F458
;CRC=5F89  CREATED="05-mars-19 18:17"
