:10000000D6EF01F08E0E006E0BC001F00AC002F0B8
:10001000036A015209E102C001F0026A080E005EA3
:10002000015202E1006A08D0D89001BE04D0023625
:1000300001360006F9D7019EFEEF01F00E50D8B44C
:1000400071D0006E1250D8B46DD0002604E3810E3A
:10005000002668E204D07F0E005E64E363E00FC018
:1000600016F01350161A0F8E138E11501502F4CF7E
:1000700018F010501402F4CF03F0F3CF17F015026C
:10008000F3501826F4501722000E032211501402C8
:10009000F3501826F4501722000E026A032202229F
:1000A0000F501502F3501726F4500322000E0222BF
:1000B0000F501402F3500326F4500222000E016A7E
:1000C000012211501302F3501726F4500322000EA0
:1000D0000222012210501302F3500326F450022290
:1000E000000E01220F501302F3500226F450012299
:1000F000002A01BE05D01736033602360136000647
:10010000000E17AE0AD0032A02220122015005E197
:10011000025003E1035001E1002A16BE018E16AE23
:10012000019E04D0006A016A026A036A12000E503E
:10013000D8B4A5D01A6E1250D8B4A1D01A5E05E377
:100140007F0E1A26D8B09BD006D0810E1A5ED8A09A
:1001500096D0D8B494D01AC000F0016A026A036A3B
:10016000196A0FC018F0188E10C017F011C016F0E1
:10017000190E1A6E1550165E0DE2010E175E0AE298
:10018000185E08E2195E06E2192A182A172A155085
:10019000162628D01450175E12E2010E185E0FE2E8
:1001A000195E0DE2192A182A145017261550162622
:1001B00019E3172A17E1182A15E1192A13D0135049
:1001C0008009185E0EE2010E195E0BE2192A135027
:1001D0008009182614501726E9E3182AE7E1192A9E
:1001E000E5D703801A2E01D00BD0D89016361736DB
:1001F00018361936D8900336023601361B36BAD770
:100200001BA006D0D8900132023203321B3202D03A
:10021000000635E01BBE1ED0D890163617361836AD
:1002200019361550165E07E2010E175E04E2185EDD
:1002300002E2195E1AE31450175E05E2010E185E21
:1002400002E2195E12E313508009185E03E2010E08
:10025000195E0BE3032A09E1022A07E1012A05E1FD
:10026000002A0DE00132023203320FC01AF013509F
:100270001A1A1AAE02D0018E06D0019E04D0006A6E
:10028000016A026A036A2DEF02F08E0E006E0A50B8
:10029000005E0BC002F00CC001F0028E005209E0BB
:1002A000D890025202E1015204E002320132002EE3
:1002B000F7D70BAE05D0011E021E012AD8B4022AC0
:1002C0004DEF02F00F50016A0E5C03E20EC000F029
:1002D0000CD0006A080E106E0E3600360F50005C0F
:1002E000D8B0006E0136102EF7D71200EA6A0E0E53
:1002F000E96EEF500DE0060E016E006A002EFED78B
:10030000012EFBD77B0E006E002EFED7EF2EF3D70B
:1003100012000AC00EF00A0E0F6ED4DF01C00EF0FC
:100320000A0E0F6ECFDF00C00BF00AC00EF00A0EEF
:100330000F6EC8DF00C00CF0956A0BC08CFF969062
:100340008D8096928D92020E0D6E960E0E6ECEDF01
:100350000D2EFBD70C380D6EF00E0D16956A0DC0E4
:100360008CFF96908D9096928D82020E0D6E960E59
:100370000E6EBCDF0D2EFBD752EF02F01C0E0B6E83
:10038000936A0A500B5C05E393928A8293908A9059
:100390000BD093908A80020E0C6EFA0E0E6EA6DFC2
:1003A0000C2EFBD793928A9255EF02F0F86AD09EFA
:1003B000C180C182C184C196070EB46EC190C18252
:1003C000C184C186C19CC28CC28EC18EC2809D8CEC
:1003D000C00EF212D26A000E016EC250C70B01109D
:1003E000C26E9D8AC00EF212C284C2B4FED7C4CFC0
:1003F00003F0C3CF0AF0C4CF0BF004D603C00DF056
:1004000002C00CF001C00BF000C00AF003C011F0F4
:1004100002C010F001C00FF000C00EF0156A146A9F
:10042000200E136E810E126E09DE03C00DF002C0A5
:100430000CF001C00BF000C00AF003C011F002C0C4
:1004400010F001C00FF000C00EF0156AC00E146E5F
:100450007F0E136E880E126E6AD603C00DF002C0B6
:100460000CF001C00BF000C00AF003C011F002C094
:1004700010F001C00FF000C00EF0156A146A480EAB
:10048000136E850E126EDADD03C00DF002C00CF0A3
:1004900001C00BF000C00AF0F8D601C004F004C09F
:0E04A0000AF037D704C00AF069D79ED70300D0
:020000040030CA
:0E00000000220C0E000081000FC00FE00F4028
:00000001FF
;PIC18F458
;CRC=10C9  CREATED="10-avr.-19 21:20"
